{
    "address": "0x5FbDB2315678afecb367f032d93F642f64180aa3",
    "abi": [
        {
            "inputs": [],
            "stateMutability": "nonpayable",
            "type": "constructor"
        },
        {
            "anonymous": false,
            "inputs": [
                {
                    "indexed": true,
                    "internalType": "address",
                    "name": "owner",
                    "type": "address"
                },
                {
                    "indexed": true,
                    "internalType": "address",
                    "name": "approved",
                    "type": "address"
                },
                {
                    "indexed": true,
                    "internalType": "uint256",
                    "name": "tokenId",
                    "type": "uint256"
                }
            ],
            "name": "Approval",
            "type": "event"
        },
        {
            "anonymous": false,
            "inputs": [
                {
                    "indexed": true,
                    "internalType": "address",
                    "name": "owner",
                    "type": "address"
                },
                {
                    "indexed": true,
                    "internalType": "address",
                    "name": "operator",
                    "type": "address"
                },
                {
                    "indexed": false,
                    "internalType": "bool",
                    "name": "approved",
                    "type": "bool"
                }
            ],
            "name": "ApprovalForAll",
            "type": "event"
        },
        {
            "anonymous": false,
            "inputs": [
                {
                    "indexed": true,
                    "internalType": "address",
                    "name": "from",
                    "type": "address"
                },
                {
                    "indexed": true,
                    "internalType": "address",
                    "name": "to",
                    "type": "address"
                },
                {
                    "indexed": true,
                    "internalType": "uint256",
                    "name": "tokenId",
                    "type": "uint256"
                }
            ],
            "name": "Transfer",
            "type": "event"
        },
        {
            "inputs": [
                {
                    "internalType": "address",
                    "name": "to",
                    "type": "address"
                },
                {
                    "internalType": "uint256",
                    "name": "tokenId",
                    "type": "uint256"
                }
            ],
            "name": "approve",
            "outputs": [],
            "stateMutability": "nonpayable",
            "type": "function"
        },
        {
            "inputs": [
                {
                    "internalType": "address",
                    "name": "owner",
                    "type": "address"
                }
            ],
            "name": "balanceOf",
            "outputs": [
                {
                    "internalType": "uint256",
                    "name": "",
                    "type": "uint256"
                }
            ],
            "stateMutability": "view",
            "type": "function"
        },
        {
            "inputs": [
                {
                    "internalType": "uint256",
                    "name": "tokenId",
                    "type": "uint256"
                }
            ],
            "name": "getApproved",
            "outputs": [
                {
                    "internalType": "address",
                    "name": "",
                    "type": "address"
                }
            ],
            "stateMutability": "view",
            "type": "function"
        },
        {
            "inputs": [
                {
                    "internalType": "uint256",
                    "name": "tokenId",
                    "type": "uint256"
                }
            ],
            "name": "getTokenUri",
            "outputs": [
                {
                    "internalType": "string",
                    "name": "",
                    "type": "string"
                }
            ],
            "stateMutability": "view",
            "type": "function"
        },
        {
            "inputs": [
                {
                    "internalType": "string",
                    "name": "citizenshipId",
                    "type": "string"
                }
            ],
            "name": "getTokensByCitizenshipId",
            "outputs": [
                {
                    "internalType": "uint256[]",
                    "name": "tokenIds",
                    "type": "uint256[]"
                }
            ],
            "stateMutability": "view",
            "type": "function"
        },
        {
            "inputs": [
                {
                    "internalType": "address",
                    "name": "owner",
                    "type": "address"
                },
                {
                    "internalType": "address",
                    "name": "operator",
                    "type": "address"
                }
            ],
            "name": "isApprovedForAll",
            "outputs": [
                {
                    "internalType": "bool",
                    "name": "",
                    "type": "bool"
                }
            ],
            "stateMutability": "view",
            "type": "function"
        },
        {
            "inputs": [
                {
                    "internalType": "string",
                    "name": "tokenUri",
                    "type": "string"
                },
                {
                    "internalType": "string",
                    "name": "citizenshipId",
                    "type": "string"
                }
            ],
            "name": "mintNft",
            "outputs": [],
            "stateMutability": "nonpayable",
            "type": "function"
        },
        {
            "inputs": [],
            "name": "name",
            "outputs": [
                {
                    "internalType": "string",
                    "name": "",
                    "type": "string"
                }
            ],
            "stateMutability": "view",
            "type": "function"
        },
        {
            "inputs": [
                {
                    "internalType": "uint256",
                    "name": "tokenId",
                    "type": "uint256"
                }
            ],
            "name": "ownerOf",
            "outputs": [
                {
                    "internalType": "address",
                    "name": "",
                    "type": "address"
                }
            ],
            "stateMutability": "view",
            "type": "function"
        },
        {
            "inputs": [
                {
                    "internalType": "address",
                    "name": "from",
                    "type": "address"
                },
                {
                    "internalType": "address",
                    "name": "to",
                    "type": "address"
                },
                {
                    "internalType": "uint256",
                    "name": "tokenId",
                    "type": "uint256"
                }
            ],
            "name": "safeTransferFrom",
            "outputs": [],
            "stateMutability": "nonpayable",
            "type": "function"
        },
        {
            "inputs": [
                {
                    "internalType": "address",
                    "name": "from",
                    "type": "address"
                },
                {
                    "internalType": "address",
                    "name": "to",
                    "type": "address"
                },
                {
                    "internalType": "uint256",
                    "name": "tokenId",
                    "type": "uint256"
                },
                {
                    "internalType": "bytes",
                    "name": "_data",
                    "type": "bytes"
                }
            ],
            "name": "safeTransferFrom",
            "outputs": [],
            "stateMutability": "nonpayable",
            "type": "function"
        },
        {
            "inputs": [
                {
                    "internalType": "address",
                    "name": "operator",
                    "type": "address"
                },
                {
                    "internalType": "bool",
                    "name": "approved",
                    "type": "bool"
                }
            ],
            "name": "setApprovalForAll",
            "outputs": [],
            "stateMutability": "nonpayable",
            "type": "function"
        },
        {
            "inputs": [
                {
                    "internalType": "bytes4",
                    "name": "interfaceId",
                    "type": "bytes4"
                }
            ],
            "name": "supportsInterface",
            "outputs": [
                {
                    "internalType": "bool",
                    "name": "",
                    "type": "bool"
                }
            ],
            "stateMutability": "view",
            "type": "function"
        },
        {
            "inputs": [],
            "name": "symbol",
            "outputs": [
                {
                    "internalType": "string",
                    "name": "",
                    "type": "string"
                }
            ],
            "stateMutability": "view",
            "type": "function"
        },
        {
            "inputs": [
                {
                    "internalType": "uint256",
                    "name": "tokenId",
                    "type": "uint256"
                }
            ],
            "name": "tokenURI",
            "outputs": [
                {
                    "internalType": "string",
                    "name": "",
                    "type": "string"
                }
            ],
            "stateMutability": "view",
            "type": "function"
        },
        {
            "inputs": [
                {
                    "internalType": "address",
                    "name": "from",
                    "type": "address"
                },
                {
                    "internalType": "address",
                    "name": "to",
                    "type": "address"
                },
                {
                    "internalType": "uint256",
                    "name": "tokenId",
                    "type": "uint256"
                }
            ],
            "name": "transferFrom",
            "outputs": [],
            "stateMutability": "nonpayable",
            "type": "function"
        }
    ],
    "transactionHash": "0xc140a233dad572c0669e12d71a218fce1cf1c1062718e4f5956b67ff9efa2f1c",
    "args": [],
    "numDeployments": 1,
    "solcInputHash": "01b27b2d9cdfb2987cb1b1179d709112",
    "bytecode": "0x60806040523480156200001157600080fd5b506040518060400160405280600681526020017f41737365737400000000000000000000000000000000000000000000000000008152506040518060400160405280600181526020017f4100000000000000000000000000000000000000000000000000000000000000815250816000908051906020019062000096929190620000b8565b508060019080519060200190620000af929190620000b8565b505050620001cd565b828054620000c69062000197565b90600052602060002090601f016020900481019282620000ea576000855562000136565b82601f106200010557805160ff191683800117855562000136565b8280016001018555821562000136579182015b828111156200013557825182559160200191906001019062000118565b5b50905062000145919062000149565b5090565b5b80821115620001645760008160009055506001016200014a565b5090565b7f4e487b7100000000000000000000000000000000000000000000000000000000600052602260045260246000fd5b60006002820490506001821680620001b057607f821691505b60208210811415620001c757620001c662000168565b5b50919050565b612eb180620001dd6000396000f3fe608060405234801561001057600080fd5b50600436106101005760003560e01c806370a0823111610097578063a914a3f711610066578063a914a3f7146102bd578063b88d4fde146102ed578063c87b56dd14610309578063e985e9c51461033957610100565b806370a08231146102235780638ad913451461025357806395d89b4114610283578063a22cb465146102a157610100565b806323b872dd116100d357806323b872dd1461019f57806342842e0e146101bb578063475a54ba146101d75780636352211e146101f357610100565b806301ffc9a71461010557806306fdde0314610135578063081812fc14610153578063095ea7b314610183575b600080fd5b61011f600480360381019061011a9190611ab7565b610369565b60405161012c9190611aff565b60405180910390f35b61013d61044b565b60405161014a9190611bb3565b60405180910390f35b61016d60048036038101906101689190611c0b565b6104dd565b60405161017a9190611c79565b60405180910390f35b61019d60048036038101906101989190611cc0565b610562565b005b6101b960048036038101906101b49190611d00565b61067a565b005b6101d560048036038101906101d09190611d00565b6106da565b005b6101f160048036038101906101ec9190611e88565b6106fa565b005b61020d60048036038101906102089190611c0b565b610777565b60405161021a9190611c79565b60405180910390f35b61023d60048036038101906102389190611f00565b610829565b60405161024a9190611f3c565b60405180910390f35b61026d60048036038101906102689190611c0b565b6108e1565b60405161027a9190611bb3565b60405180910390f35b61028b6108f3565b6040516102989190611bb3565b60405180910390f35b6102bb60048036038101906102b69190611f83565b610985565b005b6102d760048036038101906102d29190611fc3565b61099b565b6040516102e491906120ca565b60405180910390f35b6103076004803603810190610302919061218d565b610a11565b005b610323600480360381019061031e9190611c0b565b610a73565b6040516103309190611bb3565b60405180910390f35b610353600480360381019061034e9190612210565b610bc5565b6040516103609190611aff565b60405180910390f35b60007f80ac58cd000000000000000000000000000000000000000000000000000000007bffffffffffffffffffffffffffffffffffffffffffffffffffffffff1916827bffffffffffffffffffffffffffffffffffffffffffffffffffffffff1916148061043457507f5b5e139f000000000000000000000000000000000000000000000000000000007bffffffffffffffffffffffffffffffffffffffffffffffffffffffff1916827bffffffffffffffffffffffffffffffffffffffffffffffffffffffff1916145b80610444575061044382610c59565b5b9050919050565b60606000805461045a9061227f565b80601f01602080910402602001604051908101604052809291908181526020018280546104869061227f565b80156104d35780601f106104a8576101008083540402835291602001916104d3565b820191906000526020600020905b8154815290600101906020018083116104b657829003601f168201915b5050505050905090565b60006104e882610cc3565b610527576040517f08c379a000000000000000000000000000000000000000000000000000000000815260040161051e90612323565b60405180910390fd5b6004600083815260200190815260200160002060009054906101000a900473ffffffffffffffffffffffffffffffffffffffff169050919050565b600061056d82610777565b90508073ffffffffffffffffffffffffffffffffffffffff168373ffffffffffffffffffffffffffffffffffffffff1614156105de576040517f08c379a00000000000000000000000000000000000000000000000000000000081526004016105d5906123b5565b60405180910390fd5b8073ffffffffffffffffffffffffffffffffffffffff166105fd610d2f565b73ffffffffffffffffffffffffffffffffffffffff16148061062c575061062b81610626610d2f565b610bc5565b5b61066b576040517f08c379a000000000000000000000000000000000000000000000000000000000815260040161066290612447565b60405180910390fd5b6106758383610d37565b505050565b61068b610685610d2f565b82610df0565b6106ca576040517f08c379a00000000000000000000000000000000000000000000000000000000081526004016106c1906124d9565b60405180910390fd5b6106d5838383610ece565b505050565b6106f583838360405180602001604052806000815250610a11565b505050565b60016007600082825461070d9190612528565b9250508190555061072033600754611135565b61072c60075483611153565b60088160405161073c91906125ba565b908152602001604051809103902060075490806001815401808255809150506001900390600052602060002001600090919091909150555050565b6000806002600084815260200190815260200160002060009054906101000a900473ffffffffffffffffffffffffffffffffffffffff169050600073ffffffffffffffffffffffffffffffffffffffff168173ffffffffffffffffffffffffffffffffffffffff161415610820576040517f08c379a000000000000000000000000000000000000000000000000000000000815260040161081790612643565b60405180910390fd5b80915050919050565b60008073ffffffffffffffffffffffffffffffffffffffff168273ffffffffffffffffffffffffffffffffffffffff16141561089a576040517f08c379a0000000000000000000000000000000000000000000000000000000008152600401610891906126d5565b60405180910390fd5b600360008373ffffffffffffffffffffffffffffffffffffffff1673ffffffffffffffffffffffffffffffffffffffff168152602001908152602001600020549050919050565b60606108ec82610a73565b9050919050565b6060600180546109029061227f565b80601f016020809104026020016040519081016040528092919081815260200182805461092e9061227f565b801561097b5780601f106109505761010080835404028352916020019161097b565b820191906000526020600020905b81548152906001019060200180831161095e57829003601f168201915b5050505050905090565b610997610990610d2f565b83836111c7565b5050565b60606008826040516109ad91906125ba565b9081526020016040518091039020805480602002602001604051908101604052809291908181526020018280548015610a0557602002820191906000526020600020905b8154815260200190600101908083116109f1575b50505050509050919050565b610a22610a1c610d2f565b83610df0565b610a61576040517f08c379a0000000000000000000000000000000000000000000000000000000008152600401610a58906124d9565b60405180910390fd5b610a6d84848484611334565b50505050565b6060610a7e82610cc3565b610abd576040517f08c379a0000000000000000000000000000000000000000000000000000000008152600401610ab490612767565b60405180910390fd5b6000600660008481526020019081526020016000208054610add9061227f565b80601f0160208091040260200160405190810160405280929190818152602001828054610b099061227f565b8015610b565780601f10610b2b57610100808354040283529160200191610b56565b820191906000526020600020905b815481529060010190602001808311610b3957829003601f168201915b505050505090506000610b67611390565b9050600081511415610b7d578192505050610bc0565b600082511115610bb2578082604051602001610b9a929190612787565b60405160208183030381529060405292505050610bc0565b610bbb846113a7565b925050505b919050565b6000600560008473ffffffffffffffffffffffffffffffffffffffff1673ffffffffffffffffffffffffffffffffffffffff16815260200190815260200160002060008373ffffffffffffffffffffffffffffffffffffffff1673ffffffffffffffffffffffffffffffffffffffff16815260200190815260200160002060009054906101000a900460ff16905092915050565b60007f01ffc9a7000000000000000000000000000000000000000000000000000000007bffffffffffffffffffffffffffffffffffffffffffffffffffffffff1916827bffffffffffffffffffffffffffffffffffffffffffffffffffffffff1916149050919050565b60008073ffffffffffffffffffffffffffffffffffffffff166002600084815260200190815260200160002060009054906101000a900473ffffffffffffffffffffffffffffffffffffffff1673ffffffffffffffffffffffffffffffffffffffff1614159050919050565b600033905090565b816004600083815260200190815260200160002060006101000a81548173ffffffffffffffffffffffffffffffffffffffff021916908373ffffffffffffffffffffffffffffffffffffffff160217905550808273ffffffffffffffffffffffffffffffffffffffff16610daa83610777565b73ffffffffffffffffffffffffffffffffffffffff167f8c5be1e5ebec7d5bd14f71427d1e84f3dd0314c0f7b2291e5b200ac8c7c3b92560405160405180910390a45050565b6000610dfb82610cc3565b610e3a576040517f08c379a0000000000000000000000000000000000000000000000000000000008152600401610e319061281d565b60405180910390fd5b6000610e4583610777565b90508073ffffffffffffffffffffffffffffffffffffffff168473ffffffffffffffffffffffffffffffffffffffff161480610eb457508373ffffffffffffffffffffffffffffffffffffffff16610e9c846104dd565b73ffffffffffffffffffffffffffffffffffffffff16145b80610ec55750610ec48185610bc5565b5b91505092915050565b8273ffffffffffffffffffffffffffffffffffffffff16610eee82610777565b73ffffffffffffffffffffffffffffffffffffffff1614610f44576040517f08c379a0000000000000000000000000000000000000000000000000000000008152600401610f3b906128af565b60405180910390fd5b600073ffffffffffffffffffffffffffffffffffffffff168273ffffffffffffffffffffffffffffffffffffffff161415610fb4576040517f08c379a0000000000000000000000000000000000000000000000000000000008152600401610fab90612941565b60405180910390fd5b610fbf83838361144e565b610fca600082610d37565b6001600360008573ffffffffffffffffffffffffffffffffffffffff1673ffffffffffffffffffffffffffffffffffffffff168152602001908152602001600020600082825461101a9190612961565b925050819055506001600360008473ffffffffffffffffffffffffffffffffffffffff1673ffffffffffffffffffffffffffffffffffffffff16815260200190815260200160002060008282546110719190612528565b92505081905550816002600083815260200190815260200160002060006101000a81548173ffffffffffffffffffffffffffffffffffffffff021916908373ffffffffffffffffffffffffffffffffffffffff160217905550808273ffffffffffffffffffffffffffffffffffffffff168473ffffffffffffffffffffffffffffffffffffffff167fddf252ad1be2c89b69c2b068fc378daa952ba7f163c4a11628f55a4df523b3ef60405160405180910390a4611130838383611453565b505050565b61114f828260405180602001604052806000815250611458565b5050565b61115c82610cc3565b61119b576040517f08c379a000000000000000000000000000000000000000000000000000000000815260040161119290612a07565b60405180910390fd5b806006600084815260200190815260200160002090805190602001906111c29291906119a8565b505050565b8173ffffffffffffffffffffffffffffffffffffffff168373ffffffffffffffffffffffffffffffffffffffff161415611236576040517f08c379a000000000000000000000000000000000000000000000000000000000815260040161122d90612a73565b60405180910390fd5b80600560008573ffffffffffffffffffffffffffffffffffffffff1673ffffffffffffffffffffffffffffffffffffffff16815260200190815260200160002060008473ffffffffffffffffffffffffffffffffffffffff1673ffffffffffffffffffffffffffffffffffffffff16815260200190815260200160002060006101000a81548160ff0219169083151502179055508173ffffffffffffffffffffffffffffffffffffffff168373ffffffffffffffffffffffffffffffffffffffff167f17307eab39ab6107e8899845ad3d59bd9653f200f220920489ca2b5937696c31836040516113279190611aff565b60405180910390a3505050565b61133f848484610ece565b61134b848484846114b3565b61138a576040517f08c379a000000000000000000000000000000000000000000000000000000000815260040161138190612b05565b60405180910390fd5b50505050565b606060405180602001604052806000815250905090565b60606113b282610cc3565b6113f1576040517f08c379a00000000000000000000000000000000000000000000000000000000081526004016113e890612b97565b60405180910390fd5b60006113fb611390565b9050600081511161141b5760405180602001604052806000815250611446565b806114258461164a565b604051602001611436929190612787565b6040516020818303038152906040525b915050919050565b505050565b505050565b61146283836117ab565b61146f60008484846114b3565b6114ae576040517f08c379a00000000000000000000000000000000000000000000000000000000081526004016114a590612b05565b60405180910390fd5b505050565b60006114d48473ffffffffffffffffffffffffffffffffffffffff16611985565b1561163d578373ffffffffffffffffffffffffffffffffffffffff1663150b7a026114fd610d2f565b8786866040518563ffffffff1660e01b815260040161151f9493929190612c0c565b602060405180830381600087803b15801561153957600080fd5b505af192505050801561156a57506040513d601f19601f820116820180604052508101906115679190612c6d565b60015b6115ed573d806000811461159a576040519150601f19603f3d011682016040523d82523d6000602084013e61159f565b606091505b506000815114156115e5576040517f08c379a00000000000000000000000000000000000000000000000000000000081526004016115dc90612b05565b60405180910390fd5b805181602001fd5b63150b7a0260e01b7bffffffffffffffffffffffffffffffffffffffffffffffffffffffff1916817bffffffffffffffffffffffffffffffffffffffffffffffffffffffff191614915050611642565b600190505b949350505050565b60606000821415611692576040518060400160405280600181526020017f300000000000000000000000000000000000000000000000000000000000000081525090506117a6565b600082905060005b600082146116c45780806116ad90612c9a565b915050600a826116bd9190612d12565b915061169a565b60008167ffffffffffffffff8111156116e0576116df611d5d565b5b6040519080825280601f01601f1916602001820160405280156117125781602001600182028036833780820191505090505b5090505b6000851461179f5760018261172b9190612961565b9150600a8561173a9190612d43565b60306117469190612528565b60f81b81838151811061175c5761175b612d74565b5b60200101907effffffffffffffffffffffffffffffffffffffffffffffffffffffffffffff1916908160001a905350600a856117989190612d12565b9450611716565b8093505050505b919050565b600073ffffffffffffffffffffffffffffffffffffffff168273ffffffffffffffffffffffffffffffffffffffff16141561181b576040517f08c379a000000000000000000000000000000000000000000000000000000000815260040161181290612def565b60405180910390fd5b61182481610cc3565b15611864576040517f08c379a000000000000000000000000000000000000000000000000000000000815260040161185b90612e5b565b60405180910390fd5b6118706000838361144e565b6001600360008473ffffffffffffffffffffffffffffffffffffffff1673ffffffffffffffffffffffffffffffffffffffff16815260200190815260200160002060008282546118c09190612528565b92505081905550816002600083815260200190815260200160002060006101000a81548173ffffffffffffffffffffffffffffffffffffffff021916908373ffffffffffffffffffffffffffffffffffffffff160217905550808273ffffffffffffffffffffffffffffffffffffffff16600073ffffffffffffffffffffffffffffffffffffffff167fddf252ad1be2c89b69c2b068fc378daa952ba7f163c4a11628f55a4df523b3ef60405160405180910390a461198160008383611453565b5050565b6000808273ffffffffffffffffffffffffffffffffffffffff163b119050919050565b8280546119b49061227f565b90600052602060002090601f0160209004810192826119d65760008555611a1d565b82601f106119ef57805160ff1916838001178555611a1d565b82800160010185558215611a1d579182015b82811115611a1c578251825591602001919060010190611a01565b5b509050611a2a9190611a2e565b5090565b5b80821115611a47576000816000905550600101611a2f565b5090565b6000604051905090565b600080fd5b600080fd5b60007fffffffff0000000000000000000000000000000000000000000000000000000082169050919050565b611a9481611a5f565b8114611a9f57600080fd5b50565b600081359050611ab181611a8b565b92915050565b600060208284031215611acd57611acc611a55565b5b6000611adb84828501611aa2565b91505092915050565b60008115159050919050565b611af981611ae4565b82525050565b6000602082019050611b146000830184611af0565b92915050565b600081519050919050565b600082825260208201905092915050565b60005b83811015611b54578082015181840152602081019050611b39565b83811115611b63576000848401525b50505050565b6000601f19601f8301169050919050565b6000611b8582611b1a565b611b8f8185611b25565b9350611b9f818560208601611b36565b611ba881611b69565b840191505092915050565b60006020820190508181036000830152611bcd8184611b7a565b905092915050565b6000819050919050565b611be881611bd5565b8114611bf357600080fd5b50565b600081359050611c0581611bdf565b92915050565b600060208284031215611c2157611c20611a55565b5b6000611c2f84828501611bf6565b91505092915050565b600073ffffffffffffffffffffffffffffffffffffffff82169050919050565b6000611c6382611c38565b9050919050565b611c7381611c58565b82525050565b6000602082019050611c8e6000830184611c6a565b92915050565b611c9d81611c58565b8114611ca857600080fd5b50565b600081359050611cba81611c94565b92915050565b60008060408385031215611cd757611cd6611a55565b5b6000611ce585828601611cab565b9250506020611cf685828601611bf6565b9150509250929050565b600080600060608486031215611d1957611d18611a55565b5b6000611d2786828701611cab565b9350506020611d3886828701611cab565b9250506040611d4986828701611bf6565b9150509250925092565b600080fd5b600080fd5b7f4e487b7100000000000000000000000000000000000000000000000000000000600052604160045260246000fd5b611d9582611b69565b810181811067ffffffffffffffff82111715611db457611db3611d5d565b5b80604052505050565b6000611dc7611a4b565b9050611dd38282611d8c565b919050565b600067ffffffffffffffff821115611df357611df2611d5d565b5b611dfc82611b69565b9050602081019050919050565b82818337600083830152505050565b6000611e2b611e2684611dd8565b611dbd565b905082815260208101848484011115611e4757611e46611d58565b5b611e52848285611e09565b509392505050565b600082601f830112611e6f57611e6e611d53565b5b8135611e7f848260208601611e18565b91505092915050565b60008060408385031215611e9f57611e9e611a55565b5b600083013567ffffffffffffffff811115611ebd57611ebc611a5a565b5b611ec985828601611e5a565b925050602083013567ffffffffffffffff811115611eea57611ee9611a5a565b5b611ef685828601611e5a565b9150509250929050565b600060208284031215611f1657611f15611a55565b5b6000611f2484828501611cab565b91505092915050565b611f3681611bd5565b82525050565b6000602082019050611f516000830184611f2d565b92915050565b611f6081611ae4565b8114611f6b57600080fd5b50565b600081359050611f7d81611f57565b92915050565b60008060408385031215611f9a57611f99611a55565b5b6000611fa885828601611cab565b9250506020611fb985828601611f6e565b9150509250929050565b600060208284031215611fd957611fd8611a55565b5b600082013567ffffffffffffffff811115611ff757611ff6611a5a565b5b61200384828501611e5a565b91505092915050565b600081519050919050565b600082825260208201905092915050565b6000819050602082019050919050565b61204181611bd5565b82525050565b60006120538383612038565b60208301905092915050565b6000602082019050919050565b60006120778261200c565b6120818185612017565b935061208c83612028565b8060005b838110156120bd5781516120a48882612047565b97506120af8361205f565b925050600181019050612090565b5085935050505092915050565b600060208201905081810360008301526120e4818461206c565b905092915050565b600067ffffffffffffffff82111561210757612106611d5d565b5b61211082611b69565b9050602081019050919050565b600061213061212b846120ec565b611dbd565b90508281526020810184848401111561214c5761214b611d58565b5b612157848285611e09565b509392505050565b600082601f83011261217457612173611d53565b5b813561218484826020860161211d565b91505092915050565b600080600080608085870312156121a7576121a6611a55565b5b60006121b587828801611cab565b94505060206121c687828801611cab565b93505060406121d787828801611bf6565b925050606085013567ffffffffffffffff8111156121f8576121f7611a5a565b5b6122048782880161215f565b91505092959194509250565b6000806040838503121561222757612226611a55565b5b600061223585828601611cab565b925050602061224685828601611cab565b9150509250929050565b7f4e487b7100000000000000000000000000000000000000000000000000000000600052602260045260246000fd5b6000600282049050600182168061229757607f821691505b602082108114156122ab576122aa612250565b5b50919050565b7f4552433732313a20617070726f76656420717565727920666f72206e6f6e657860008201527f697374656e7420746f6b656e0000000000000000000000000000000000000000602082015250565b600061230d602c83611b25565b9150612318826122b1565b604082019050919050565b6000602082019050818103600083015261233c81612300565b9050919050565b7f4552433732313a20617070726f76616c20746f2063757272656e74206f776e6560008201527f7200000000000000000000000000000000000000000000000000000000000000602082015250565b600061239f602183611b25565b91506123aa82612343565b604082019050919050565b600060208201905081810360008301526123ce81612392565b9050919050565b7f4552433732313a20617070726f76652063616c6c6572206973206e6f74206f7760008201527f6e6572206e6f7220617070726f76656420666f7220616c6c0000000000000000602082015250565b6000612431603883611b25565b915061243c826123d5565b604082019050919050565b6000602082019050818103600083015261246081612424565b9050919050565b7f4552433732313a207472616e736665722063616c6c6572206973206e6f74206f60008201527f776e6572206e6f7220617070726f766564000000000000000000000000000000602082015250565b60006124c3603183611b25565b91506124ce82612467565b604082019050919050565b600060208201905081810360008301526124f2816124b6565b9050919050565b7f4e487b7100000000000000000000000000000000000000000000000000000000600052601160045260246000fd5b600061253382611bd5565b915061253e83611bd5565b9250827fffffffffffffffffffffffffffffffffffffffffffffffffffffffffffffffff03821115612573576125726124f9565b5b828201905092915050565b600081905092915050565b600061259482611b1a565b61259e818561257e565b93506125ae818560208601611b36565b80840191505092915050565b60006125c68284612589565b915081905092915050565b7f4552433732313a206f776e657220717565727920666f72206e6f6e657869737460008201527f656e7420746f6b656e0000000000000000000000000000000000000000000000602082015250565b600061262d602983611b25565b9150612638826125d1565b604082019050919050565b6000602082019050818103600083015261265c81612620565b9050919050565b7f4552433732313a2062616c616e636520717565727920666f7220746865207a6560008201527f726f206164647265737300000000000000000000000000000000000000000000602082015250565b60006126bf602a83611b25565b91506126ca82612663565b604082019050919050565b600060208201905081810360008301526126ee816126b2565b9050919050565b7f45524337323155524953746f726167653a2055524920717565727920666f722060008201527f6e6f6e6578697374656e7420746f6b656e000000000000000000000000000000602082015250565b6000612751603183611b25565b915061275c826126f5565b604082019050919050565b6000602082019050818103600083015261278081612744565b9050919050565b60006127938285612589565b915061279f8284612589565b91508190509392505050565b7f4552433732313a206f70657261746f7220717565727920666f72206e6f6e657860008201527f697374656e7420746f6b656e0000000000000000000000000000000000000000602082015250565b6000612807602c83611b25565b9150612812826127ab565b604082019050919050565b60006020820190508181036000830152612836816127fa565b9050919050565b7f4552433732313a207472616e736665722066726f6d20696e636f72726563742060008201527f6f776e6572000000000000000000000000000000000000000000000000000000602082015250565b6000612899602583611b25565b91506128a48261283d565b604082019050919050565b600060208201905081810360008301526128c88161288c565b9050919050565b7f4552433732313a207472616e7366657220746f20746865207a65726f2061646460008201527f7265737300000000000000000000000000000000000000000000000000000000602082015250565b600061292b602483611b25565b9150612936826128cf565b604082019050919050565b6000602082019050818103600083015261295a8161291e565b9050919050565b600061296c82611bd5565b915061297783611bd5565b92508282101561298a576129896124f9565b5b828203905092915050565b7f45524337323155524953746f726167653a2055524920736574206f66206e6f6e60008201527f6578697374656e7420746f6b656e000000000000000000000000000000000000602082015250565b60006129f1602e83611b25565b91506129fc82612995565b604082019050919050565b60006020820190508181036000830152612a20816129e4565b9050919050565b7f4552433732313a20617070726f766520746f2063616c6c657200000000000000600082015250565b6000612a5d601983611b25565b9150612a6882612a27565b602082019050919050565b60006020820190508181036000830152612a8c81612a50565b9050919050565b7f4552433732313a207472616e7366657220746f206e6f6e20455243373231526560008201527f63656976657220696d706c656d656e7465720000000000000000000000000000602082015250565b6000612aef603283611b25565b9150612afa82612a93565b604082019050919050565b60006020820190508181036000830152612b1e81612ae2565b9050919050565b7f4552433732314d657461646174613a2055524920717565727920666f72206e6f60008201527f6e6578697374656e7420746f6b656e0000000000000000000000000000000000602082015250565b6000612b81602f83611b25565b9150612b8c82612b25565b604082019050919050565b60006020820190508181036000830152612bb081612b74565b9050919050565b600081519050919050565b600082825260208201905092915050565b6000612bde82612bb7565b612be88185612bc2565b9350612bf8818560208601611b36565b612c0181611b69565b840191505092915050565b6000608082019050612c216000830187611c6a565b612c2e6020830186611c6a565b612c3b6040830185611f2d565b8181036060830152612c4d8184612bd3565b905095945050505050565b600081519050612c6781611a8b565b92915050565b600060208284031215612c8357612c82611a55565b5b6000612c9184828501612c58565b91505092915050565b6000612ca582611bd5565b91507fffffffffffffffffffffffffffffffffffffffffffffffffffffffffffffffff821415612cd857612cd76124f9565b5b600182019050919050565b7f4e487b7100000000000000000000000000000000000000000000000000000000600052601260045260246000fd5b6000612d1d82611bd5565b9150612d2883611bd5565b925082612d3857612d37612ce3565b5b828204905092915050565b6000612d4e82611bd5565b9150612d5983611bd5565b925082612d6957612d68612ce3565b5b828206905092915050565b7f4e487b7100000000000000000000000000000000000000000000000000000000600052603260045260246000fd5b7f4552433732313a206d696e7420746f20746865207a65726f2061646472657373600082015250565b6000612dd9602083611b25565b9150612de482612da3565b602082019050919050565b60006020820190508181036000830152612e0881612dcc565b9050919050565b7f4552433732313a20746f6b656e20616c7265616479206d696e74656400000000600082015250565b6000612e45601c83611b25565b9150612e5082612e0f565b602082019050919050565b60006020820190508181036000830152612e7481612e38565b905091905056fea2646970667358221220e24ceb13bb4386438d5654165f9ead5579c3ea2ddaf4fc1d969ce51eec28c4f864736f6c63430008080033",
    "devdoc": {
        "kind": "dev",
        "methods": {
            "approve(address,uint256)": {
                "details": "See {IERC721-approve}."
            },
            "balanceOf(address)": {
                "details": "See {IERC721-balanceOf}."
            },
            "getApproved(uint256)": {
                "details": "See {IERC721-getApproved}."
            },
            "isApprovedForAll(address,address)": {
                "details": "See {IERC721-isApprovedForAll}."
            },
            "name()": {
                "details": "See {IERC721Metadata-name}."
            },
            "ownerOf(uint256)": {
                "details": "See {IERC721-ownerOf}."
            },
            "safeTransferFrom(address,address,uint256)": {
                "details": "See {IERC721-safeTransferFrom}."
            },
            "safeTransferFrom(address,address,uint256,bytes)": {
                "details": "See {IERC721-safeTransferFrom}."
            },
            "setApprovalForAll(address,bool)": {
                "details": "See {IERC721-setApprovalForAll}."
            },
            "supportsInterface(bytes4)": {
                "details": "See {IERC165-supportsInterface}."
            },
            "symbol()": {
                "details": "See {IERC721Metadata-symbol}."
            },
            "tokenURI(uint256)": {
                "details": "See {IERC721Metadata-tokenURI}."
            },
            "transferFrom(address,address,uint256)": {
                "details": "See {IERC721-transferFrom}."
            }
        },
        "version": 1
    },
    "userdoc": {
        "kind": "user",
        "methods": {},
        "version": 1
    },
    "storageLayout": {
        "storage": [
            {
                "astId": 65,
                "contract": "contracts/Assest.sol:Assest",
                "label": "_name",
                "offset": 0,
                "slot": "0",
                "type": "t_string_storage"
            },
            {
                "astId": 67,
                "contract": "contracts/Assest.sol:Assest",
                "label": "_symbol",
                "offset": 0,
                "slot": "1",
                "type": "t_string_storage"
            },
            {
                "astId": 71,
                "contract": "contracts/Assest.sol:Assest",
                "label": "_owners",
                "offset": 0,
                "slot": "2",
                "type": "t_mapping(t_uint256,t_address)"
            },
            {
                "astId": 75,
                "contract": "contracts/Assest.sol:Assest",
                "label": "_balances",
                "offset": 0,
                "slot": "3",
                "type": "t_mapping(t_address,t_uint256)"
            },
            {
                "astId": 79,
                "contract": "contracts/Assest.sol:Assest",
                "label": "_tokenApprovals",
                "offset": 0,
                "slot": "4",
                "type": "t_mapping(t_uint256,t_address)"
            },
            {
                "astId": 85,
                "contract": "contracts/Assest.sol:Assest",
                "label": "_operatorApprovals",
                "offset": 0,
                "slot": "5",
                "type": "t_mapping(t_address,t_mapping(t_address,t_bool))"
            },
            {
                "astId": 1052,
                "contract": "contracts/Assest.sol:Assest",
                "label": "_tokenURIs",
                "offset": 0,
                "slot": "6",
                "type": "t_mapping(t_uint256,t_string_storage)"
            },
            {
                "astId": 1925,
                "contract": "contracts/Assest.sol:Assest",
                "label": "tokenCounter",
                "offset": 0,
                "slot": "7",
                "type": "t_uint256"
            },
            {
                "astId": 1930,
                "contract": "contracts/Assest.sol:Assest",
                "label": "citizenshipIdToAssestIds",
                "offset": 0,
                "slot": "8",
                "type": "t_mapping(t_string_memory_ptr,t_array(t_uint256)dyn_storage)"
            }
        ],
        "types": {
            "t_address": {
                "encoding": "inplace",
                "label": "address",
                "numberOfBytes": "20"
            },
            "t_array(t_uint256)dyn_storage": {
                "base": "t_uint256",
                "encoding": "dynamic_array",
                "label": "uint256[]",
                "numberOfBytes": "32"
            },
            "t_bool": {
                "encoding": "inplace",
                "label": "bool",
                "numberOfBytes": "1"
            },
            "t_mapping(t_address,t_bool)": {
                "encoding": "mapping",
                "key": "t_address",
                "label": "mapping(address => bool)",
                "numberOfBytes": "32",
                "value": "t_bool"
            },
            "t_mapping(t_address,t_mapping(t_address,t_bool))": {
                "encoding": "mapping",
                "key": "t_address",
                "label": "mapping(address => mapping(address => bool))",
                "numberOfBytes": "32",
                "value": "t_mapping(t_address,t_bool)"
            },
            "t_mapping(t_address,t_uint256)": {
                "encoding": "mapping",
                "key": "t_address",
                "label": "mapping(address => uint256)",
                "numberOfBytes": "32",
                "value": "t_uint256"
            },
            "t_mapping(t_string_memory_ptr,t_array(t_uint256)dyn_storage)": {
                "encoding": "mapping",
                "key": "t_string_memory_ptr",
                "label": "mapping(string => uint256[])",
                "numberOfBytes": "32",
                "value": "t_array(t_uint256)dyn_storage"
            },
            "t_mapping(t_uint256,t_address)": {
                "encoding": "mapping",
                "key": "t_uint256",
                "label": "mapping(uint256 => address)",
                "numberOfBytes": "32",
                "value": "t_address"
            },
            "t_mapping(t_uint256,t_string_storage)": {
                "encoding": "mapping",
                "key": "t_uint256",
                "label": "mapping(uint256 => string)",
                "numberOfBytes": "32",
                "value": "t_string_storage"
            },
            "t_string_memory_ptr": {
                "encoding": "bytes",
                "label": "string",
                "numberOfBytes": "32"
            },
            "t_string_storage": {
                "encoding": "bytes",
                "label": "string",
                "numberOfBytes": "32"
            },
            "t_uint256": {
                "encoding": "inplace",
                "label": "uint256",
                "numberOfBytes": "32"
            }
        }
    }
}